:1020000000800020BD240000A5240000A5240000BD
:1020100000000000000000000000000000000000C0
:10202000000000000000000000000000A5240000E7
:102030000000000000000000A524000011250000A1
:10204000A5240000A5240000A5240000A52400006C
:10205000A5240000A5240000A5240000A924000058
:10206000A5240000CD230000ED230000A5240000DE
:10207000A5240000A5240000DD230000A524000005
:10208000A5240000A5240000A5240000A52400002C
:1020900000000000A5240000A5240000A5240000E5
:1020A000A5240000A5240000A5240000A52400000C
:1020B0000000000010B5064C2378002B07D1054B1B
:1020C000002B02D0044800E000BF0123237010BDA4
:1020D000B40200200000000098AA0000044B10B5D4
:1020E000002B03D00349044800E000BF10BDC046E8
:1020F00000000000B802002098AA0000164B002B38
:1021000000D1144B9D46402292029A1A9246002119
:102110008B460F461348144A121A04F0B6F90F4BB7
:10212000002B00D098470E4B002B00D09847002082
:10213000002104000D000D48002802D00C4800E0EA
:1021400000BF04F061F92000290002F01DF904F03D
:1021500045F9C04600000800008000200000000093
:1021600000000000B4020020A80F002000000000C2
:102170000000000010B50321082000F091FB0221AF
:10218000080000F08DFB0021092000F0B9FB0121BF
:10219000092000F085FB0021032000F0B1FB0121A4
:1021A000032000F07DFBE121084C4902200000F0F3
:1021B000F7FE0749200000F083FC0649200000F0EC
:1021C0007FFC0022044B1A6010BDC046B4090020F9
:1021D00007A2000021A20000D802002010B50220B2
:1021E00000F0BAFB0B4A1300111F38331C68043B84
:1021F0009C608B42FAD10F231060990051588142A4
:1022000004D1013B002BF8D1080010BD0121494247
:10221000FAE7C0460C00002010B5082000F09CFB37
:10222000054B59681A68996005C3884201D19042EC
:1022300001D00120404210BD00000020F8B53A4C0A
:102240003A4E226833680A3205002260042B1BD8FC
:10225000180002F065F9033645535C00012D13D1D7
:102260000021092000F04CFB2900032000F048FB6E
:102270002F4F3049380000F023FC2F49380000F080
:102280001FFC002323602B0032689A4217D0284D90
:102290002A492800336000F002FC0A223168280035
:1022A00000F05BFC2649280000F0F9FB21680A22B7
:1022B000280000F056FC2349280000F001FC002013
:1022C000F8BD032D2DD020498A42DDD900210320FD
:1022D00000F016FBFA20800000F058F90023D3E745
:1022E000022DD1D10121092000F00AFB1749104825
:1022F00000F0E6FB002323600333C5E7042D02D082
:1023000013498A42C0D9002323600433BCE7114932
:102310008A42B9D90021032000F0F2FA0023236099
:10232000B2E70223B0E7C046D0020020D802002066
:10233000B40900208CA1000021A20000E3A100004C
:10234000F0A1000003A200009F860100B1A10000DF
:102350002F7500001F4E000070B5FFF75DFF0600EF
:10236000012820D1164B1C6863425C41A400FFF792
:1023700035FF0222134B05001B68934304D101284B
:102380001BD0002800D114002000FFF757FF002EBB
:1023900001DB0B4B1E60002D01DB0B4B1D600A2087
:1023A00000F0F4F870BD0024A042E0D1044B04001A
:1023B0001B68012BDBD10324D9E70400E4E7C04606
:1023C000D4020020D8020020DC02002010B5024810
:1023D00001F0DDFE10BDC046E002002010B502484D
:1023E00001F0D5FE10BDC0461C05002010B5024806
:1023F00001F0CDFE10BDC04658070020F7B50124FE
:102400000325194F1949380000F0F8FB18491948FD
:1024100000F0F4FB1849194800F0F0FB184919487E
:1024200000F0ECFB1849194800F0E8FB184E194978
:10243000300000F0E3FB39000095230001940022F6
:10244000154801F039FE3100009501941E231F222A
:10245000124801F031FE009501942C232D220549EC
:102460000F4801F029FEF7BD940900200008004242
:10247000000C004298090020001000429C09002036
:1024800000140042A009002000180042A409002006
:10249000A8090020001C0042E00200201C050020CA
:1024A00058070020FEE70000034B10B51B68002B07
:1024B00000D0984710BDC046AC09002070B50F4948
:1024C0000F4CA14204D100F087F8FFF717FEFEE79A
:1024D0000C4D00238D42F6D0CA18E818A24205D34D
:1024E000094B8242EFD00949002204E0006804331E
:1024F0001060F1E704C38B42FCD3E4E70000002046
:10250000B4020020A4AA0000B4020020A80F0020FA
:1025100010B500F05EF8002801D100F04FF810BDB2
:10252000014B18607047C046AC090020F7B513484E
:10253000012284461249134C8E68636805689B0E1D
:102540001340019288686268019F920E3A40674684
:102550003F6893420ED1BD420CD186420AD35B192B
:10256000FA254868AD00861B07486B437043000D91
:10257000C018FEBD3D0013000600E3E7B0090020CF
:1025800010E000E000ED00E05555000070B5041EBD
:1025900010D0FFF7CBFF050000F01AF8FFF7C6FFD9
:1025A000054B401B9842F7D9FA23013C9B00ED18DC
:1025B000002CF3D170BDC046E703000010B5034AFC
:1025C00013680133136000F0E7FA10BDB009002072
:1025D00070470020704700001E2270B546484749EA
:1025E000436893431C3A1343436008238C69234395
:1025F0008B61434C434B9C829C8A14439C82DC68D5
:102600001442FCD00124404A14701578254203D0AE
:1026100055786DB2002DF8DB01249460547864B2D3
:10262000002CFBDB394C5460547864B2002CFBDB8B
:102630008224E4015480547864B2002CFBDB022431
:102640009C840E34DD682542FCD0314CDC621024C1
:10265000DD682542FCD09D8C2E4C2C439C8410249C
:10266000DD682542FCD002249D8C80262C439C846E
:102670004024DD683542FCD0DD682542F9D01024C5
:10268000DD682542FCD000249460547864B2002CAC
:10269000FBDB214C5460547864B2002CFBDB1C6AD9
:1026A0001E4D2C4080251C621C6AAC431C62032317
:1026B00093601B4B536053785BB2002BFBDB002312
:1026C000FF240B72174A4B728B72CB72164B1A6037
:1026D000164B174A1B6811689A065B01C90E234006
:1026E000520F12020B431343124A13858023426890
:1026F0001343436070BDC0460040004100040040E9
:102700000C06000000080040000C0040010501001C
:10271000B905FF7D040A000000070300FFFCFFFF6E
:1027200003060100006CDC024C00002024608000E5
:102730002060800000400042FA212D4B10B518683F
:10274000890001F0F7FE2B4B013898424FD82A49F7
:102750002A4A4860C020136A00061B021B0A034372
:10276000136200238B6007330B608021136A090614
:102770001B021B0A0B431362FC22214B196A0A43FA
:102780001A62FF22196A12020A431A62A022196A07
:10279000D2020A431A621B4B1C005A7852B2002A1A
:1027A000FBDB194A5A80194B1A00597EC9090129C5
:1027B000FBD0C821890099800521D970537EDB099F
:1027C000012BFBD0C02300205B011361907000F04F
:1027D00023F863785BB2002BFBDB0D4B0D4A638063
:1027E000D379DB09012BFBD04123537010BDFEE7E9
:1027F0004C000020FFFFFF0010E000E000ED00E0D3
:1028000000040040000C00401E4000000040004258
:1028100021400000004800421F4900B50B004A7EDD
:10282000D209012AFBD001380A282FD801F078FEFE
:102830001B2E2E2E2E2E062E2E2411001A6917491D
:102840000A400F211A615A788A43110001220A4373
:1028500010E01A6911490A400F211A615A788A4317
:1028600011000322F3E71A690C490A400F211A618B
:102870005A788A435A7000BD1A6908490A400F21E4
:102880001A615A788A4311000222E0E7F02219699E
:1028900012050A43F3E7C04600400042FFFFFFF085
:1028A000182310B508244343134AD01804570134A1
:1028B00012D001249A5643689C4003290CD8080082
:1028C0000E49D2015218D318403301F029FE0210EC
:1028D000060B02211970546010BD06211970546056
:1028E0009461F9E70621197054605461F4E70221FC
:1028F00019709460F0E7C04634A200000044004123
:102900001823F0B508245843114A13181C570134F2
:102910001BD0012635005F688356BD400D4ADB01A0
:102920009A18906805420BD10C00601E8441D219A0
:102930004032107834400336A400B0432043107076
:10294000044A9B18002901D15D61F0BD9D61FCE73F
:1029500034A2000000440041182310B5082443436A
:1029600007490020CA181457013408D05B5605499E
:10297000DB015B18186A5368D8400123184010BD6A
:1029800034A20000004400411822424370B52D4E8D
:102990000300B218127A52B2140001320ED0481C51
:1029A00000240C280AD801F0BBFD071F1F1F1F1FA2
:1029B0001F1F1F0B0B0B0B0001246442200070BD76
:1029C000092905D100211800FFF76AFF0024F5E767
:1029D0000A2901D10839F6E700240B29EED10A397A
:1029E0001800FFF75DFFE9E7182201205343F218B2
:1029F000F3565568144ADB016C089B18C9B228408D
:102A00001C1900280ED00F20303422780901024012
:102A100011434122C9B25B192170403319780A432E
:102A20001A70D3E722000F26303214785B19B443B2
:102A30002143117041224033197804000A431A706F
:102A4000BCE7C04634A2000000440041F7B50600D0
:102A50000D000C008B180193019B671B9C4207D053
:102A6000336821781B683000984701340028F3D17F
:102A70003800FEBD70B5040008000D0004F048FCED
:102A80002368020029005B682000984770BD10B5DC
:102A90000B1E02D0FFF7EEFF0300180010BD10B5AB
:102AA000FFF7F5FF10BD10B503681B68984710BD10
:102AB00010B50249FFF7DEFF10BDC04684A6000036
:102AC00070B50400FFF7E3FF05002000FFF7F0FFFB
:102AD000401970BDF0B58BB06B4615000022053370
:102AE0000600DA770800012D00D80A2509AC290074
:102AF00001F0A6FDCAB2130037330700DBB2092983
:102B000002D813003033DBB2013C2370002FEED12A
:102B100021003000FFF7BBFF0BB0F0BDF8B5060099
:102B20000C00151E04D10368C9B21B689847F8BD94
:102B30000A2A0CD100290BDA2D21FFF7B4FF6142DC
:102B400007002A003000FFF7C5FF3818EFE7D2B2C0
:102B500021003000FFF7BEFFE9E710B5FFF7DEFF09
:102B600010BD10B5002A04D10368C9B21B6898478C
:102B700010BDD2B2FFF7AEFFFAE70000014B1860BC
:102B80007047C046500000200122024B52421A609A
:102B90007047C04650000020124A1368591C20D0CC
:102BA000013B1360002B1CD172B60F4B01221900A0
:102BB000187D1042FCD02022188BFF3202431A836A
:102BC0000A4ADA610A4A1A8001230A7D1A42FCD0B5
:102BD000BFF34F8F074B084ADA60BFF34F8FC046F1
:102BE000FDE7704750000020004000410210000047
:102BF00002A5FFFF00ED00E00400FA050160704748
:102C00009446F0B59E1E721E964162460568920774
:102C10002F6836063A4332432A60072505AC2478EC
:102C20000068A4012940214342680024022B00D0FF
:102C30005C03114321434160F0BD30B5C0250368FA
:102C4000AD031C6812052A402243C0240904A402D3
:102C500021401143196003685A6814435C6030BD19
:102C60000123026811680B43136003681A68D207D6
:102C7000FCD4DA69D207F9D47047022302681168DC
:102C80000B4313600268D3699B07FCD47047036849
:102C90001A7ED20702D41A7E9207FCD57047002212
:102CA00003685A8370470368187E4007C00F704757
:102CB0000368187EC0097047802302685B42117E5A
:102CC0000B43137670470368588B8007C00F70471B
:102CD00002230268518B0B43538370470368187EAD
:102CE000C007C00F70470368188DC0B270470368F3
:102CF0001A7ED207FCD589B20120198570470122BE
:102D000003689A757047012203681A7570470000BE
:102D10000368104A934213D00F4A934212D00F4ACD
:102D2000934211D00E4A934210D00E4A93420FD0D4
:102D300001200D4A4042934201D1063040B2704713
:102D40000020FBE70120F9E70220F7E70320F5E781
:102D50000420F3E700080042000C0042001000428B
:102D60000014004200180042001C0042F8B5FFF7B2
:102D7000CFFF00282EDBC3001C481F22C0180523EC
:102D80000579C35601201A4090400326C0221849F5
:102D900052001E40F6008850813AB240C024D2430F
:102DA000B440002B17DA0F263340083B114E9B0826
:102DB0009B009B19DE6932401443DC613F231D40B8
:102DC0008023DB011D430C4B08605D805A7852B2B2
:102DD000002AFBDBF8BD064E9B089B009B19C02612
:102DE000B6009F593A4014439C51E7E788A600007B
:102DF00000E100E000ED00E0000C0040F8B5040048
:102E00000F0016001D00FFF7B1FF2000FFF728FF9D
:102E10001C21BB000B4071072268090C0B43136097
:102E2000842322689375012F1AD11021012E00D01E
:102E300008390C4B69431868C00001F07BFB07227E
:102E4000216802408B895203DB04DB0C13438B8126
:102E5000226803049089DB0C400B400318439081E7
:102E6000F8BDC0464C0000203F20704713B56B46AC
:102E70000268D9710733546819000122A04716BDB2
:102E800010B50221006900F03DFC10BD10B5032112
:102E9000006900F04DFC10BD10B5054C23685A1CAC
:102EA00004D103685B69984703002060180010BDD7
:102EB000A4000020074B0200186810B5411C03D085
:102EC000012252421A6010BD0221106900F01AFD61
:102ED000F9E7C046A400002010B51300094A040019
:102EE000D079C0B2002805D1627E002A02D0012329
:102EF000636006E00A002069032100F011FD00284C
:102F0000F5D010BD5800002010B5037842220233DE
:102F100003700249024800F0AFFD10BD60000020C0
:102F2000D009002010B50178020043780020A129C3
:102F300008D1212B05D107221649174800F09CFD26
:102F4000012010BD2129FCD1202B13D107221149CA
:102F5000114800F031FC96220E4BD20019689142C4
:102F60000ED10124D87904400AD1FA20FFF706FED9
:102F70000020E6E7222B06D19278064BDA71EAE7C9
:102F8000FFF702FEF4E7232BDBD15288034B1A60D4
:102F9000D7E7C04658000020D00900205400002088
:102FA0000123437670470000FA220021054B92006E
:102FB0009A60054A596008321A60044A19761A6103
:102FC0007047C046B4090020B8A60000D009002010
:102FD000704770B50F26CB1D013902003240D5B2C3
:102FE0002C0000093034092A00DD07341C70013B35
:102FF0008B42F2D170BD10B50400806903F032FA43
:10300000A06A03F02FFA200010BD10B50400FFF7EE
:10301000F2FF200001F0D4F9200010BD70B50329A3
:1030200008D1324B8000C058002802D00368DB680A
:10303000984770BD82291FD1C3B22D4D5A01AA18DD
:1030400091692C4C80010C40C0218905214391617C
:10305000294908334018802150612A685B01D01843
:1030600004794942214301717020995C8143080031
:10307000302101439954DCE70029DAD1C024C1B2E0
:103080001B4E4A01B21893681A4DA4052B402343E6
:1030900093601A4B8001C0180B00506030680726FF
:1030A00008335B01195CB1430E000121314319540F
:1030B00091690D402C43946170240F495161195C52
:1030C000A1430C0010212143195491680C4CC318E2
:1030D0000C4080214903214391609168890B890349
:1030E0009160402259790A435A71A2E7D40900201D
:1030F000880E0020FFFFFF8FFC090020BC0B002082
:10310000FF3F00F0EFF3108303600123436072B6CA
:1031100070470368002B02D162B6BFF36F8F704710
:1031200037B5056904006846002D14D1FFF7EAFFA2
:10313000019B621D013B02D3D57FEDB2FAE76846E1
:103140000193FFF7E6FF002D01D100203EBD206A6C
:10315000E369C01AFAE7FFF7D5FF22000025019BBB
:103160003432013B02D31578EDB2FAE76846019399
:10317000FFF7CFFF002DE8D0206BE36AE9E70000FE
:10318000FF2130B54368164D1A6883680B405B0118
:10319000D21801235218947A2343937283684268A9
:1031A0000B405B01D418C268A36892042B4012093B
:1031B0001343A360836842680B405B01D3189A688D
:1031C000920B92039A6043681A6883680B40083335
:1031D0005B01D318402219790A431A7130BDC046E9
:1031E000FF3F00F0F7B5036904000E0017006846C2
:1031F000002B45D1FFF786FF019B611D013B5A1C47
:103200000CD0CD7F5A1EEDB2002D05D1684601933A
:10321000FFF77FFF2800FEBD1300F0E7684601932B
:103220000025FFF776FFE369AF420AD0226A9A428F
:1032300007D95A1CE261A269D3181B78735501356E
:10324000F1E7226A9A42E5D10023E3610133236169
:103250006846FFF757FF22000021019B671D013BD5
:103260003532581CD2D0F97710785E1E002805D070
:10327000117020000193FFF783FFECE73300F0E7C4
:10328000FFF740FF2100019B3431013B5A1C06D05F
:103290000D785A1EEDB2002DB8D01300F6E768463F
:1032A00001930025FFF735FFE36ABD4202D0226B90
:1032B0009A421CD8226B9A42ACD100236846E36242
:1032C0002361FFF71FFF270022000021019B3437F5
:1032D000013B3532581C99D0397010785E1E002899
:1032E0000DD0117020000193FFF74AFFEBE75A1C45
:1032F000E262A26AD3181B7873550135D4E7330014
:10330000E8E7F7B5FF21826843680A401B68083286
:1033100052019A18D3790400DB072AD50125D5710B
:10332000836842680B405B01D3189A684069920435
:10333000920C002821D12262226A002A3ED0A26A81
:10334000656168465A60FFF7DDFE27002100019B9A
:10335000661D013B343735315A1C2BD0F5773A784E
:10336000581ED2B2002A05D0019368460D70FFF7AF
:10337000D0FEF7BD0A700300EEE72263226B002A3D
:103380001CD000226261A26968465A60FFF7BAFE4B
:1033900026002100019B3436013B671D35315A1C44
:1033A00008D03570FA7F581ED2B2002ADCD10A70DC
:1033B0000300F4E768460193FFF7ABFE2000FFF738
:1033C000DFFED6E737B56B46DC1D00230D0020007D
:1033D0002370FFF799FD2B681818286001F046F854
:1033E000210001F00FF82B681818286020783EBDE6
:1033F00003290ED180220E4B62311B68FF31585CCD
:10340000524202435A5468226339FF32FF399954B9
:1034100070470129FCD18022054B24311B68FF3104
:10342000585C524202435A5428222339FF32EDE7B6
:10343000880E002070B50025304B012104001A20B1
:103440001D70FFF72DFA01211A20FFF759FA2C4BB6
:10345000012119201D70FFF723FA01211920FFF720
:103460004FFA2023274A0F20D1690B43D361012251
:1034700025490B7813430B70244B1978814319703D
:1034800006211D782943197021490D782A430A70B5
:103490001A7802401A70602219780A431A701D4B7C
:1034A0001D4A5A805A78D209FCD11C48FFF738F8D7
:1034B0001B4D280000F0ECFF280001F001F87F21EF
:1034C0002A68C120137880000B40137004232A68F7
:1034D00011780B430C2113702A6813898B4311490F
:1034E00013810B581B021B0A0B5080230B601178B1
:1034F0007E3B0B4313700123237070BDF109002044
:10350000F009002000040040584400413C440041C0
:1035100059440041000C004006400000ED3E000010
:10352000880E002000E100E00078002810D0012182
:10353000084B1B681A898A431A810822198B0A438F
:103540001A830422198B0A431A830022024B1A6041
:103550007047C046880E0020800E002010B50F4A2C
:1035600093699B0B9B03936113680222FF331A72CA
:103570009879823A02439A711A7A9207FCD57F248D
:10358000074A2140937A0800A3431900802301438E
:103590009172917A5B420B43937210BD880E0020AA
:1035A0000050004110B50B790C00002B0CD1080025
:1035B000FFF7B8FC002801D0012010BD094A93692B
:1035C0009B0B9B039361F7E700F050FF210000F095
:1035D0003DFF0028F0D1034A93699B0B9B03936145
:1035E000EBE7C046880E0020F8B50D00832A19D1FC
:1035F000CBB2364C5A01A21891693548AD0108404A
:10360000C021890501439161324920686D187021FC
:10361000083355615B011A5C8A43110040220A435A
:103620001A54F8BD022A4CD12B4A8B009858002816
:1036300002D003685B699847382000F0BDFE274B35
:10364000802703600023214E7F00421D0362036137
:103650004361C36146608560C760D3772F32040041
:10366000C362036313703800537002F0F1FEA0616F
:10367000380002F0EDFE2A00A062FF200240510156
:1036800071188B68124FAD001F40C0239B053B4350
:103690008B6013003168072608335B015A5CB24324
:1036A0001600032232435A54A368626803405B0148
:1036B000D318A26920005A60FFF762FD064B5C51E7
:1036C000AFE711002800FFF7A9FCAAE7880E002049
:1036D000FFFFFF8FFC090020D4090020E4A60000B2
:1036E00070B505000124064BA200D258002A05D06F
:1036F00021002800FFF778FF0134F4E770BDC046D1
:10370000A8000020084B8A00D05810B5002803D02C
:1037100003689B68984710BDC9B2044B490159180A
:1037200088688004800CF6E7D4090020880E002009
:1037300010B50C00FFF7E6FF00280CD0064BE4B2F2
:103740001B68083464011C19802362795B421343AF
:1037500063710223E37110BD880E002070B5CBB2F7
:10376000124A13485C018901891802195160916855
:10377000104D08330D408021890229434025916076
:103780009168890B8903916001685A018A1816793A
:103790003543157195796D06FCD55B01C918CB7958
:1037A000DB07FCD500198068C0B270BDBC0B0020DF
:1037B000880E0020FF3F00F070B5140040220B4B34
:1037C0000D001B68FF3359790A435A710021FFF736
:1037D000C5FFA04200D9200000230549A34203D021
:1037E000CA5CEA540133F9E770BDC046880E002078
:1037F000BC0B002010B5C9B20B48490142189368B0
:103800009B049B0C3F2B0BD99468403B9B04A40B5F
:103810009B0CA4032343936041188868C0B210BD79
:1038200093689B0B9B03F6E7880E0020F0B51C0005
:103830002F4B85B01B6806000D000192002B54D061
:103840002C4F3978C9B2002902D11920FFF758F856
:1038500064233B70284BAA00D058002808D0036886
:1038600022005B68019998470400200005B0F0BD74
:1038700029003000FFF746FF844204D929003000B8
:10388000FFF740FF040029003000FFF7B3FF0121DC
:10389000EBB21A4F03935B010293029A3B680198C3
:1038A0009B18FF335A7A0A435A72154BA901C9185B
:1038B000220002F0E1FD002CD7D029003000FFF7F4
:1038C00021FF0028D1D14021039B3A6808335B01D6
:1038D000D3181879014319710121D971029BD318AA
:1038E000FF339A7A0A439A72BFE701246442BCE725
:1038F000800E0020F0090020D4090020880E00204E
:10390000BC0B002013B56B46DC1D22000123FFF722
:103910008DFF012801D1207816BD01204042FBE730
:10392000F0B51E003A4B85B01B680F000192002BCA
:103930003FD08023DB019E423BD8364C2178C9B270
:10394000002902D11A20FEF7DBFF64230025237033
:10395000314BBA01D3180293002E2CD02F4B1B6889
:103960000393FF233B401C0000930834039B640136
:103970001C19A379DB0921D0294B2A49186800F0CA
:10398000D9FD294B1721584300F0D4FD274BE2798C
:10399000920713D4DA5D002A01D10138F7D201224F
:1039A000DA55009B5A011D4B9B189A69920B9203A2
:1039B0009A6101256D42280005B0F0BD00221B4B25
:1039C0003400DA55402E00D9402422000199029893
:1039D00002F052FD009BA1045A01104B890C9B1868
:1039E000029A2D195A619A69361B920B92030A4367
:1039F0009A61009B039A08335B01D3180222DA71A3
:103A00005979823A0A435A71019B1B190193A3E722
:103A1000800E0020F1090020FC090020880E002003
:103A20004C00002040420F0070110100F3090020FB
:103A300070B50D001C000D4BAE01F61811003000E2
:103A4000220002F019FDEDB209496D014D196E61B8
:103A5000AB69084A20001340AB61AB69A2049B0B21
:103A6000920C9B031343AB6170BDC046FC09002060
:103A7000880E0020FF3F00F0F7B5104B01901B7837
:103A80000F001500002B0CD10D4B16001C78002CDC
:103A900009D00C4E0C4834882018641902F0ECFC54
:103AA00034802800FEBD002EFBD03A1933000021DF
:103AB0000198FFF7BDFF2418361AF4E77C0D0020AB
:103AC0007D0E00207E0E00207D0D0020F8B5002028
:103AD00000AF0E001500012A27D9D31D6A46DB0866
:103AE000DB00D31A9D46080003F012FC6C4603234A
:103AF000022200210130400020706370AA420DD2E2
:103B0000307800280AD0531CDBB20136A0549D4205
:103B100003D00232E154D2B2F0E72A002100044877
:103B2000FFF7AAFF431E9841C0B2BD46F8BDC0468C
:103B3000D0090020F0B50024012685B0184B0F00F5
:103B400069461E7005000094FFF73CFC154B01A967
:103B50000B806A3BFF3BCB716E3B0B72009B8C7101
:103B600009334B800E4B4E7108711C703A00092FBF
:103B70000FD00D4F09223E700C4E28000094348067
:103B8000FFF77AFF69462800FFF71CFC32880849D6
:103B90003C702800FFF770FF012005B0F0BDC04663
:103BA0007C0D0020090200007D0E00207E0E00200A
:103BB0007D0D0020F0B5CF7893B005000E00022FE8
:103BC00009D1C9882B48FFF7B5FF441EA041C4B2F4
:103BD000200013B0F0BD00F049FC310000F026FCDD
:103BE000002803D0C417241AE40FF1E7012F0BD1EA
:103BF000F2882149112A11D8D2B2002A0ED0280009
:103C0000FFF73AFF0124E3E70400032FE0D1B37884
:103C1000002B05D1F2881949032AEDD90A78EEE77D
:103C2000022B06D1B27916492800FFF74FFF040096
:103C3000CEE7012B02D1B2791249F5E7032BC7D1A8
:103C4000114B01A91868FFF7C4F9104B03A91868B4
:103C5000FFF7BFF90E4B05A91868FFF7BAF90D4B2E
:103C600007A91868FFF7B5F96B460533DC77B27919
:103C700001A9D9E7D00900201DA700000CA700006A
:103C8000FCA6000010A700000CA0800040A080004F
:103C900044A0800048A0800073B5060048780D005D
:103CA0000B2810D800F03CFC061B0F2B0F40456D75
:103CB000494C6669097801AA002906D102231180BE
:103CC0003000FFF7B5FE012076BD002313802E4B98
:103CD0001B78012B00D1137002230021F0E78A78B2
:103CE0000023012A03D101AA1380284BF0E7264ABA
:103CF0001370274A93699B0B9B039361E3E78C78CE
:103D0000012C06D10021214B01AA1C701170230047
:103D1000D6E7002C08D101201B4B1D4A187093696F
:103D20009B0B9B039361CFE7A9783000FFF716FC4C
:103D3000C9E73000FFF73EFFC6E70123154ACCE78D
:103D40000B780020DB06BFD13000FFF7C9FC2A202A
:103D50000221AA780F4BFF301A600D4A13681C5CD1
:103D600021434A241954FF34195D2938FF3801438F
:103D70001955D4E70123084AAFE78A78064B1A6041
:103D8000B7E70020A0E7C046F2090020FA090020AA
:103D9000880E0020800E0020840E00204B4BF7B5CB
:103DA0001C780700002C00D083E0494E33689B8BC1
:103DB0001B070ED521002000FFF730F932681023D1
:103DC0001100FF31887A03438B72424B1C60082339
:103DD000938333689A8B52071FD504229A833E4AF5
:103DE0001378002B0AD01378013BDBB213701378E1
:103DF000002B03D101211A20FEF782FD374A1378E8
:103E0000002B0AD01378013BDBB213701378002B20
:103E100003D101211920FEF773FD3368FF331A7AAD
:103E2000D2061ED510221A72597930320A435A71BD
:103E300060232B4938000A781A423BD1FFF72CFF48
:103E40003368FF33002838D08022997952420A43E0
:103E50009A711A7A520604D540221A72597A0A4384
:103E60005A72336800241D8C01239D43EDB20193E7
:103E7000E1B2002D1DD02B002341019A134215D031
:103E80002300326808335B01D318DA79D20702D4F1
:103E9000DB799B0707D5134BA200D058002810D020
:103EA00003681B689847019BA3409D430134092C7C
:103EB000DED1F7BDFFF776FBC2E720210A4A9171F8
:103EC000C7E73800FFF794FAEDE7C0467D0E002003
:103ED000880E0020800E0020F1090020F00900204B
:103EE000BC0B0020D4090020FF50004110B502484F
:103EF000FFF754FF10BDC046D0090020014B024A15
:103F00001A607047880E0020005000410120704761
:103F100010B50368014A1B6A984710BD13040000DE
:103F20000300FC33D9699A69914203D0DB69C01858
:103F3000007D704701204042FBE710B50400006996
:103F4000FEF78EFE22000023FC329361D3618622AD
:103F50009200A4186360A36010BDF02001403039C6
:103F6000484248417047F0231B0119408023062036
:103F70009B0099420AD00133FF330130994205D0AA
:103F8000802302385B00994200D0002070470F2048
:103F900001400020012903D00239481E8141481CFC
:103FA000704700008923F0B5182685B002919B0068
:103FB0000400C05C330008214343324D1700EB1866
:103FC0005956FEF7E1FC304B0821E05C33004343D7
:103FD000EB185956FEF7D8FC2C4BE25C0393022AEF
:103FE00009D11133E05CFF2805D008214643AE1902
:103FF0007156FEF7C9FC8A26B600A05DFF2819D0CD
:104000000121FEF74DFC1822A35D21495A43AB560E
:10401000AD18DB0158188B21890060501D49012221
:104020005B188C218900635069688A408D21890062
:1040300062501A600122029B11002069FEF7DEFE29
:1040400039002000FFF78FFF390005002000FFF73F
:104050009EFF390006002000FFF77FFF330000902D
:10406000290020690122FEF7CBFD0B4B2069E25CA1
:10407000039BE15CFEF7E1FD2069FEF7FEFD05B064
:10408000F0BDC04634A20000250200002702000057
:10409000184400411444004126020000802210B55B
:1040A00004005200002102F0F0F923000022FC334A
:1040B0005A6020009A6010BDF7B51D0008AB1B7850
:1040C0000400009309AB1B781600019300234360A2
:1040D000FA239B008360114B0F00083303601430F8
:1040E000FFF7DCFF20001D30FF30FFF7D7FF8923EB
:1040F0006A469B002761E654094B1278E554094B48
:104100002000E2546A46084B1279E2548A22293B85
:10411000FF3B9200A3541032A354FEBD30A7000011
:104120002502000026020000270200000300FC33E5
:1041300058689B68C01A01D50130FF30704710B530
:10414000040020001D30FF30FFF7F0FF0028F8D1F9
:104150002069FEF79CFD10BD10B51430FFF7E6FF97
:1041600010BD0300FC3359689A68914204DB5A6819
:104170009868801AFF30704798685B68C01A0138E9
:10418000F9E710B51D30FF30FFF7EBFF10BD10B59C
:1041900004000069FEF797FD002805D02069FEF7AE
:1041A000A2FD2069FEF794FD2069FEF77CFD002842
:1041B00020D02069FEF797FD2200FC329369D16977
:1041C0000133DBB28B4203D09169611808759361AA
:1041D0008A239B00E35CFF2B0CD020001430FFF7F8
:1041E000C0FF092806DC8B238D229B009200E35838
:1041F000A2581A602069FEF771FD00281AD020002D
:104200001D30FF30FFF792FF002822D086239B004D
:10421000E31899685A68914218D08E219A6849002B
:10422000A218515C9A680132D2B29A60C9B2206970
:10423000FEF75DFD2069FEF73BFD002805D02069F3
:10424000FEF73AFD2069FEF72AFD10BD0121494223
:10425000ECE72069FEF757FDECE7000070B50400BD
:1042600000690D00FEF73AFD00283ED1FF268623A7
:104270009B00E3185A689968013232408A4223D180
:10428000EFF31083DB0710D41E4B5B68DB05DB0DFF
:10429000EDD0103B5BB2002B10DA0F221340083B2D
:1042A0009B08194A9B009B181B682069FEF716FDA6
:1042B0000028DCD02000FFF76AFFD8E79B08C03356
:1042C000124A9B009B58F0E75A68013216409A68E0
:1042D000964205D08E215A684900A21855545E6056
:1042E0002069FEF70CFD012070BD20001D30FF305D
:1042F000FFF71CFF0028B9D129002069FEF7F7FC61
:10430000F1E7C04600ED00E01CED00E000E100E058
:10431000030070B5FC33D9699A69040091421AD040
:10432000DA698218157DDA690132D2B2DA618A233C
:104330009B00E35CFF2B0CD020001430FFF711FF33
:104340000A2806DD8C238D229B009200E358A25898
:104350001A60280070BD01256D42E8E77047000033
:1043600010B5FDF707FFFDF7F7FFFEF731F9034B37
:10437000002BF8D000E000BFF5E7C04600000000C9
:1043800010B5FFF7EDFF000010B5FEF7D5F902F00C
:104390003BF8FFF7E3FF0120FEF7F8F8054C20009B
:1043A000FFF748F82000FFF7BFF8FFF7E9FF00200C
:1043B00010BDC046D009002010B502F049F810BD6C
:1043C00010B502F04FF810BD10B50200EFF31081E8
:1043D00072B60A4B1868002801D10948186018689D
:1043E0008218EFF30884A24204D21A60002900D197
:1043F00062B610BD01204042F8E7C0468C0F002095
:10440000A80F002070B50E0000254468002C0BD0CA
:10441000236831005B6820009847002802DB2D18D4
:10442000E468F3E701256D42280070BD70B50D000A
:104430004468002C08D0236829009B682000984716
:10444000002802D1E468F4E7200070BD70B50D00CB
:104450004468002C08D0236829001B682000984776
:10446000002802D1E468F4E7200070BD0121054A6C
:1044700010B5136804480B4003D1044C436004801A
:10448000116010BD900F0020940F00200204000066
:1044900070B50400012304CC0500117820000B4303
:1044A000137080220021520001F0EFFF2B689A78F0
:1044B000D207FCD49A789207F9D45C6270BD0000F0
:1044C0001F22144BF0B51B68590B9C0C9B0111402B
:1044D00014405B0F914200D105211F2C00D1023CFA
:1044E000072B00D1043B02688F01158D0A491F2656
:1044F00029403943118505683440298D0A00B243AB
:1045000022432A8500681903028D044B13400B4394
:104510000385F0BD246080003FF8FFFFFF8FFFFFA1
:1045200002B4714649084900095C49008E4402BC46
:104530007047C046002243088B4274D303098B4264
:104540005FD3030A8B4244D3030B8B4228D3030C63
:104550008B420DD3FF22090212BA030C8B4202D305
:104560001212090265D0030B8B4219D300E0090A2D
:10457000C30B8B4201D3CB03C01A5241830B8B4236
:1045800001D38B03C01A5241430B8B4201D34B031F
:10459000C01A5241030B8B4201D30B03C01A524184
:1045A000C30A8B4201D3CB02C01A5241830A8B4209
:1045B00001D38B02C01A5241430A8B4201D34B02F2
:1045C000C01A5241030A8B4201D30B02C01A524156
:1045D000CDD2C3098B4201D3CB01C01A524183090A
:1045E0008B4201D38B01C01A524143098B4201D344
:1045F0004B01C01A524103098B4201D30B01C01A6F
:104600005241C3088B4201D3CB00C01A52418308E8
:104610008B4201D38B00C01A524143088B4201D315
:104620004B00C01A5241411A00D201465241104675
:104630007047FFE701B5002000F0F0F802BDC0466A
:104640000029F7D076E7704703460B437FD400225A
:1046500043088B4274D303098B425FD3030A8B4216
:1046600044D3030B8B4228D3030C8B420DD3FF2280
:10467000090212BA030C8B4202D31212090265D04E
:10468000030B8B4219D300E0090AC30B8B4201D301
:10469000CB03C01A5241830B8B4201D38B03C01A48
:1046A0005241430B8B4201D34B03C01A5241030BBF
:1046B0008B4201D30B03C01A5241C30A8B4201D370
:1046C000CB02C01A5241830A8B4201D38B02C01A1B
:1046D0005241430A8B4201D34B02C01A5241030A92
:1046E0008B4201D30B02C01A5241CDD2C3098B4277
:1046F00001D3CB01C01A524183098B4201D38B01F4
:10470000C01A524143098B4201D34B01C01A524196
:1047100003098B4201D30B01C01A5241C3088B42DB
:1047200001D3CB00C01A524183088B4201D38B00C6
:10473000C01A524143088B4201D34B00C01A524168
:10474000411A00D201465241104670475DE0CA0F3F
:1047500000D04942031000D34042534000229C46FF
:1047600003098B422DD3030A8B4212D3FC22890109
:1047700012BA030A8B420CD3890192118B4208D3DF
:10478000890192118B4204D389013AD0921100E041
:104790008909C3098B4201D3CB01C01A5241830955
:1047A0008B4201D38B01C01A524143098B4201D382
:1047B0004B01C01A524103098B4201D30B01C01AAD
:1047C0005241C3088B4201D3CB00C01A5241830827
:1047D0008B4201D38B00C01A5241D9D243088B427D
:1047E00001D34B00C01A5241411A00D20146634620
:1047F00052415B10104601D34042002B00D5494284
:10480000704763465B1000D3404201B5002000F0C2
:1048100005F802BD0029F8D016E770477047C0467A
:104820008446101C62468C46191C634600E0C04654
:104830001FB500F00FFF002801D40021C8421FBDA2
:1048400010B500F067FE4042013010BD10B500F019
:1048500001FF002801DB002010BD012010BDC04673
:1048600010B500F0F7FE002801DD002010BD01208A
:1048700010BDC04610B500F089FE002801DC002004
:1048800010BD012010BDC04610B500F07FFE00280D
:1048900001DA002010BD012010BDC04670B5002215
:1048A0000C4B04000D00FFF7EFFF002804D120009F
:1048B000290001F00DFD70BD064B002220002900EB
:1048C00001F0A2F901F004FD80231B069C46604420
:1048D000F1E7C0460000E041F0B54F464646D646F7
:1048E0000C000903C0B5490A470F5E0039431F0396
:1048F000DB0F9C4665007B0A570F1F436D0DE40FCD
:10490000760DA146C000B846D200AB1B64457BD0F3
:10491000002B5FDD002E00D0A4E03E00164300D146
:1049200012E15E1E002E00D09EE1871A4346B84277
:1049300080410125C91A4042091A0B0200D431E115
:1049400049024E0A002E00D16EE1300001F028FD30
:104950000300083B1F2B00DD61E120223900D21A41
:104960009E40D1409F400E439D4200DD51E15D1BC2
:104970006B1C1F2B00DD7CE12021C91A3D0030009B
:104980008F408840DD40791E8F4131000722284347
:10499000D940002507433A40002A09D00F233B4065
:1049A000042B05D03B1DBB42BF417F42C9191F00EC
:1049B0000B0200D426E26A1CC64B55056D0D9A42C7
:1049C00000D106E1C44AFF080A40530752023B43A4
:1049D000120B8EE0002B00D0B8E06B1C5B055B0D6A
:1049E000012B00DC30E1871A4346B842B641CB1AAE
:1049F00076429E1B330200D54CE13B003343A1D1EC
:104A000000220024002570E0002B00DCE5E0002EF1
:104A100000D183E0AF4EB54260D0802636043743E4
:104A2000B846382B00DC3EE1434613431F007A1E94
:104A300097413F1887428041404209180B0200D439
:104A4000B0E0A44B01359D4200D1C3E0A24A7B08EF
:104A50000A4001210F401F435108D30707221F437B
:104A60003A4099E79B4EB54238D08026360437430A
:104A7000B846382B00DDDCE01F2B00DC30E11E00E7
:104A80004746203EF740BC46202B04D04026F31A70
:104A900046469E403243170063467A1E97411F43A5
:104AA000CCE0002B00D104E24346134300D159E18E
:104AB0004B07C00818438023C9081B03194208D0BC
:104AC0004546ED081D4204D14346D0085907084326
:104AD0002900420FC9007F4D1143C0004B07CA088F
:104AE0007C49C00803438D4268D012036D05120B48
:104AF0006D0D002112031800130B0A0D12051A4345
:104B0000764B2D0513402B435B00E4075B082343E2
:104B100019001CBC90469946A246F0BD3E001643C3
:104B200012D05E1E002E00D000E18718874280411F
:104B300041444042091801250B0233D5022585E77F
:104B400064463300414610001D00C7E7002D00D029
:104B5000DAE00C000443F3D05C1C00D19FE15D4C13
:104B6000A64200D12FE1DB43382B00DD66E11F2B8D
:104B700000DD83E120240500E41A0F00DD40D94068
:104B8000A0404346A7405B1A441EA04198462F43CD
:104B90003843171ABA42924143465242991A644620
:104BA0003500CAE607223A40002A00D0F6E64B0755
:104BB000CA084849FF083B438D4296D1190011436A
:104BC00000D19EE1802109030A431203120B414DDB
:104BD0008FE71500002200238BE7002B00D0C7E0F1
:104BE0006B1C5F057F0D012F00DCF1E0394DAB42FE
:104BF00000D1B9E085180A00854289414244494202
:104C000051180722CF076D082F4349083A401D006D
:104C1000C2E607223049ED1A31403A40BCE63E0078
:104C20002838864000279FE6380001F0B9FB203085
:104C30008EE6434613431F007A1E9741C71BB842B6
:104C400080414042091A78E60E003B0006431343B8
:104C5000002D61D1002E00D0F4E0002B00D11BE12B
:104C600064463900100039E71A4FBB427AD033004E
:104C7000FFE630001F3DE840202B03D04021CB1A37
:104C80009E4037437B1E9F41072207433A40002145
:104C9000002589E7171A4346BA42B641591A7642A7
:104CA0008E1B64464EE61F2B00DDADE020264746F6
:104CB000F61AB740B9461700B246DF404E463E43AB
:104CC00037005646B240561EB24117434246DA40BC
:104CD0008918AEE6FF070000FFFF7FFFFFFF0F8090
:104CE00020264746F61AB740B9461700B246DF40BD
:104CF0004E463E4337005646B240561EB241174319
:104D00004246DA40891A99E77F4CA6425BD080245C
:104D100024045B42214327E7002E0CD1002B00D155
:104D2000CBE0644639001000774DD7E6764FBB42A2
:104D300018D0330075E6002B14D04B07C008184379
:104D40008023C9081B03194207D0FC081C4204D168
:104D50007907D0080843E14621004C46420FC900BC
:104D60001143C000684DB9E61D0000220023C0E6D3
:104D7000002D5BD10D00054300D1E2E65D1C00D1A2
:104D8000B0E0614DAE421FD0DB43382B71DC1F2BEE
:104D900000DD96E020250F00ED1AAF40B946070070
:104DA000AA46DF404D463D432F005546A840D94016
:104DB000451EA84188440743BF189742924151427B
:104DC000414435003AE6644635004146100085E628
:104DD0000B000343002D00D063E6002BF5D04346C3
:104DE000134300D17AE68718874280410722414465
:104DF000404209183A400B0200D4D5E6434B013536
:104E00001940C9E5380069E61E004746203EF740D4
:104E1000BC46202B04D04026F31A46469E4032431F
:104E2000170063467A1E97411F4302E6364DAE4295
:104E3000CAD080252D045B422943A6E70843411EC2
:104E40008841A6E6002B00D148E6871A4346B842BF
:104E5000B641CB1A76429E1B33024BD5171A4346F6
:104E6000BA429241591A5242891A072264463A407C
:104E700092E501430F00791E8F419DE71C000F0052
:104E8000203CE740202B03D04024E31A99400843FC
:104E9000411E884138437CE60022002425E6171A8B
:104EA0004346BA429241591A5242891A6446350021
:104EB00043E541461000144D10E680220024120301
:104EC00080E61D000F00203DEF40BC46202B03D0A4
:104ED0004025EB1A9940084307006346781E874136
:104EE0001F4369E7871897429B4141445B42C918B9
:104EF0003500A3E53B003343CED0072231003A40D2
:104F000052E600231A00F4E5FF070000FFFF7FFFD1
:104F1000F0B55746DE464E464546E0B583460700A7
:104F20000E03480085B092461C00360B400DCD0F95
:104F3000002800D19DE0954B984239D08023F6009F
:104F40001B041E43924A7B0F334399469446030049
:104F50006344009300230026FF00029323031B0BEE
:104F600098466300E40F52465B0D019400D1B3E014
:104F700086498B4200D19EE04246D1008022120435
:104F80000A435146490F11438B46814952468C468C
:104F900000996344CB1A0021D20000932B00634098
:104FA0009A460F2E00D905E17A4BB6009B599F46D1
:104FB0005B463343994600D0B8E002230826002719
:104FC00000900293CAE7CB463A0002990195019BF3
:104FD0009A46022927D0032900D180E2012944D032
:104FE0006D49009B8C4663441C00002C38DD530740
:104FF00000D013E2D2085B46DB0109D55946674B66
:1050000019408B468021C9008C46009B63441C00DC
:10501000634B9C4207DC5B4664055F075B021743FA
:105020001B0B620D02E000230027584A00211B03DE
:105030001C0B0B0D1B05234314055A4A3800134063
:105040001C4353466400DB0764081C43210005B081
:105050003CBC90469946A246AB46F0BD0122524266
:1050600001231B1B382B00DCADE1002200230027AD
:10507000DCE75B46334399465ED0002E00D18AE1DF
:10508000300001F08DF903000B3B1C2B00DD7BE1B0
:105090001D22D31A5A460100DA4008398E40130007
:1050A0005F46334399468F403F4B00261B1A0093BF
:1050B0000023029352E7414653460B433B499B462C
:1050C0008C46009B634400935B46002B3BD102233C
:1050D00000221E43022161E7434613439B4637D01B
:1050E0004346002B00D162E1404601F059F903002C
:1050F0000B3B1C2B00DD53E102004146083A914076
:1051000088461D21CB1A5146D9400B0041460B431E
:105110009B46534693401A00009B25499C46604499
:1051200003008C4663440093002137E70323B14614
:1051300000900C26029311E700230093013304260C
:10514000002702930AE70323C3461E43032125E7F2
:1051500001331E430022012120E700239A468023C9
:1051600000271B03094A61E7802349461B031942B4
:1051700000D1E2E05946194200D0DEE00B431B03A8
:1051800017001B0BA246014A50E7C046FF0700006C
:1051900001FCFFFF64A70000FF030000FFFFFFFE0C
:1051A000FE070000FFFF0F800DFCFFFF01F8FFFF6F
:1051B000F3030000D94500D9CBE000D1C6E03C00A4
:1051C00048460027009B013B00935B46160E1B02DE
:1051D0001E431302984633041B0C9946310C01916F
:1051E000FFF72EFA4A4642430B04210C05001943EF
:1051F0008A4207D98919013D8E4203D88A4201D9D2
:10520000851E8919881A0199FFF71AFA09048C4634
:105210004A46210464464243090C030021438A4262
:1052200004D98919013B8E4200D8F1E02D041D43B9
:10523000AB464346891A4246280C12041D0C5B46B5
:10524000140C22001B041B0C5A4303946B4344436D
:10525000029568431B19150CEB189C4203D9802456
:105260006402A44660441C0C15041B042D0C201879
:105270005D19814277D373D00C1AA24A7D1BAF42CD
:10528000BF419446009B7F426344E01B1C00864262
:1052900000D1DBE00199FFF7D3F94A4642430B0402
:1052A000290C070019438A4207D98919013F8E4208
:1052B00003D88A4201D9871E8919881A0199FFF7F4
:1052C000BFF909044A46894629044D464243090C60
:1052D000030029438A4207D98919013B8E4203D82A
:1052E0008A4201D9831E89193F04891A3A00039F13
:1052F0001A43380013041B0C584381460298150CBE
:105300006F43434345434846000C8446DB196344DE
:105310009F4203D9802040028446654448461F0CC2
:1053200000041B04000C7D191818A94200D284E067
:1053300000D17FE001231A4357E680234A461B032E
:1053400013431B031B0BAA466F4A6FE6BA4200D9F0
:1053500035E74B46DC0758087B081C43FF0734E75A
:105360000024AF4289D247444745A4415B4664428A
:10537000A4196418013BA6421ED2A0426DD800D1E8
:10538000B6E0241A9B4678E703005A46283B9A4029
:105390000027914688E6584601F002F8203072E670
:1053A00003005246283B9A4093460022B4E65046FA
:1053B00000F0F6FF20309AE6A642E2D1B845DCD9EB
:1053C000341A9B4659E71F2B65DC504C0099A446C4
:1053D0005C46614408008C4011008240D940501E58
:1053E00082410C4314435A46DA401300620709D045
:1053F0000F222240042A05D02200141D9442894124
:1054000049425B181A0262D50122002300270DE6EB
:105410008A4200D80AE7831E891907E70F23134041
:10542000042B00D1E6E5171D9742924153429B445D
:10543000FA08E0E5002800D1D7E57118531EB14203
:1054400027D3A94215D358D01A0073E7002B00DCEC
:1054500004E6012300229B44CDE50223474447454F
:1054600089415B429C46494289190C19E344241A3C
:1054700003E743465F0047459B41B8465B429E19A0
:10548000023A8919A94200D054E7404500D051E7BB
:10549000ABE51A00F6E71F215F4649420C1BE740C7
:1054A000202B07D01A49009B8C46634418005B46AA
:1054B00083401A43501E82413A4307270023174076
:1054C00009D00F21002311401400042995D1220096
:1054D0005F075B021B0BD20817430022A6E580235F
:1054E00059461B030B431B0317001B0B064A9DE584
:1054F000BD42B2D89B460024BFE68045B9D31A000E
:10550000C3E7C046FF030000FF0700001E040000C1
:105510003E040000F0B54F464646D6468446C0B528
:105520008046194E18030F034D00000B5C008246A5
:105530003F0B6D0DC90F9146640DDB0F0120B54285
:105540000AD0B44203D0A54201D157450CD01CBCAF
:1055500090469946A246F0BD66463E43F7D1AC421E
:10556000F5D154461443F2D10120C845EFD19942F8
:1055700007D0002DEBD163461F433800471EB841CA
:10558000E5E70020E3E7C046FF070000F0B54F461F
:105590004646D6464D00C0B50E03C90F8A462C4973
:1055A0001F035C008046360B6D0D91463F0B640D6A
:1055B000DB0F8D421ED08C4216D0002D1ED1304301
:1055C0008446002C01D13A4323D06246002A1AD0E7
:1055D0009A4529D0514602200139084001381CBCA7
:1055E00090469946A246F0BD39001143E5D002200D
:1055F0004042F4E73043FAD1AC420FD0002C0FD137
:105600003A43E7D00CE00122013B934318000130FC
:10561000E5E763460020002BE1D0DBE73A43E6D123
:105620009A45D7D1A542D5DCA54205DBBE42D1D8EB
:1056300008D00020BE42D2D2504601230138984300
:105640000130CCE7C845C5D80020C845F4D3C6E72B
:10565000FF070000F0B54F464646D6464D00C0B5A0
:105660000E03C90F8A462E491F035C008046360B85
:105670006D0D91463F0B640DDB0F8D4218D08C42AF
:1056800011D0002D18D130438446002C1ED13A434E
:105690001CD163460020002B30D051460220013936
:1056A000084001382AE039001143EAD0022025E001
:1056B0003043FBD1AC4226D0002C26D13A4324D132
:1056C0005146022001390840013817E06246002A9D
:1056D0000FD09A45E1D1A54205DBBE42DDD819D0F5
:1056E0000020BE420AD250460123013898430130BF
:1056F00004E00122013B9343180001301CBC90469A
:105700009946A246F0BD3A43D0D19A45C5D1A542AB
:10571000C3DCE0E7C845C0D80020C845E3D3EDE7C7
:10572000FF070000F0B55746DE464E464546E0B559
:10573000834606000F03480087B092461D003F0BCA
:10574000400DCC0F002800D16FE0DE4B984238D0DE
:105750008023FF001B041F43730F3B430193DA4B6D
:105760000027994600239B46F60081442B036900DD
:105770001B0B52469846490DED0F002900D185E0DC
:10578000D04B994200D173E04346DA0080231B04DA
:1057900013435246CC48520F8446134352460020CE
:1057A0006144D20089442100694000918C46012166
:1057B00049448A460F2F00D990E0C449BF00CF5911
:1057C000BF465B463B43019300D06AE102230827B2
:1057D000002681469B46C9E732005846019B614638
:1057E0000091022800D175E0032800D1FEE10128D4
:1057F00000D02CE100230027002600253F032A0DBE
:105800003F0BB34812053A4302401B051343009A6D
:105810005B00D1075B080B433000190007B03CBCAC
:1058200090469946A246AB46F0BD5B463B4301938A
:1058300000D12FE1002F00D1A5E1380000F0B0FD2C
:1058400003000B3B1C2B00DD96E11D22D31A5A46A8
:105850000100DA405E4608398F4013008E403B431A
:1058600001939C4B00271B1A994600239B467DE71A
:10587000414653460B4393498C46E144002B00D0EC
:105880001AE102220220174300228CE7134300D1C1
:105890000DE14346002B00D181E1404600F080FD40
:1058A00002000B3A1C2A00DD72E101004346083970
:1058B0008B4098461D239A1A5346D3401A004346FC
:1058C000134352468A404946081A82498946814410
:1058D000002068E77B4B002700268EE7140C12049B
:1058E000120C1100370C3604350C794328008C4615
:1058F0002E0060436044834656432100300C8046AE
:105900005846794340440291844506D9884680210F
:1059100049028C46E044414602913604010C360CA3
:1059200000048B4681191E0C1B041B0C03911900EB
:1059300079438C46280075436544A8465843050CB6
:1059400045447743A94203D9802149028C466744E4
:10595000290C8C4639000004000C2D042D186144DC
:10596000AB4405915946049101990F043F0C080C72
:10597000390051434243904602008C46090C8B4645
:1059800062437C4344445C44A04503D980214902DE
:1059900088464244210C884661460904090C8C461D
:1059A00039005943434370437E430F0CF6182404D7
:1059B000BE19644442448C46B34203D980235B023F
:1059C00098464044029B61469846049B37044344F2
:1059D0009B46AB45AD416B420D0405992D0C8C46A1
:1059E0007F196744FD18A8465D462D19A542A441BC
:1059F00093466442A446C344DC448F42BF41984569
:105A00009B4193459241A445A4415B427F421F4381
:105A1000360C52426442BF192243BF1862463818FE
:105A20004302D20D039913436A020A43501E824176
:105A30006146ED0D2A434E023243D90100D4B3E052
:105A40000126500832400243DE0732435B08224CF5
:105A50005444002C62DD510709D00F201040042867
:105A600005D0101D9042924152429B180200D9016C
:105A700004D580241948E400034054441848844263
:105A800000DD27E75E075B02D2081F0B63051643A4
:105A90005B0DB2E6002399460133042700269B469E
:105AA00064E60323019781460C279B465EE60122AC
:105AB00001201743002276E6032303201F434346B9
:105AC00071E6C046FF07000001FCFFFFA4A700002D
:105AD000FFFF0F800DFCFFFFFF030000FFFFFFFE35
:105AE000FE0700000023802700933F030026434B5E
:105AF00083E6019B3200A446584670E6AC466EE64B
:105B0000802701993F0339422DD03B422BD11F43BF
:105B10003F033F0B00951600384B6EE601252D1B09
:105B2000382D00DD66E61F2D40DC35481C00504452
:105B3000160082408440EE40501E8241344314439C
:105B4000EB40620709D00F222240042A05D0220030
:105B5000141D9442804140421B181A023ED5012375
:105B60000027002649E68027019B3F031F433F0390
:105B70003F0B0094214B40E603005A46283B9A40D5
:105B8000002601926DE6584600F00AFC203057E6E8
:105B900003005246283B9A401300002293E65046E9
:105BA00000F0FEFB20307BE6CA4650E71F201E00B7
:105BB0004042041BE640202D03D0124C5444A34025
:105BC0001A43501E8241324307260027164009D04F
:105BD0000F200023104014000428B9D122005E07D2
:105BE0005B021F0BD2081643002306E680273F0303
:105BF0001F433F033F0B1600004BFEE5FF0700006D
:105C00001E0400003E040000F8B557464E464546C7
:105C1000DE460C000903E0B5490A460F5F00314338
:105C20001E03DB0F760A9B46530F3343C84E6500B5
:105C3000C000E40FD2006D0DA24681467F0D9C4648
:105C40009046B74200D1B9E05B46012673409B46BF
:105C5000EE1BA34500D183E0002E63DD002F00D0B2
:105C6000B1E06346134300D123E1731E002B00D043
:105C7000BAE1861A6346B04280410125C91A404202
:105C8000091A0B0200D447E149024B0A98464346E1
:105C9000002B00D189E1404600F082FB0300083B65
:105CA0001F2B00DD7CE120223000D21A4146D0407B
:105CB000994002009E400A439D4200DD6AE15D1B5F
:105CC0006B1C1F2B00DD94E1202110003500C91A48
:105CD0008E40DA408840DD40711E8E41110007225F
:105CE0002843002506433240002A09D00F233340C1
:105CF000042B05D0331DB342B641764289191E00EC
:105D00000B0200D43DE26A1C914B55056D0D9A4281
:105D100000D119E18F4AF6080A405707520237436B
:105D2000120B9BE0002E00D0C5E06E1C7605760DB0
:105D3000012E00DC48E16746861ACB1BB042BF410A
:105D40007F42B8461F004346FF1A3B00B8461B027D
:105D500000D55FE137439AD100220024002579E085
:105D6000002E00DCFAE0002F00D18DE0784B9D4240
:105D700067D0802367461B041F43BC46382E00DCD7
:105D800052E1634613435A1E93411E1886428041D6
:105D9000404209180B0200D4BEE06D4B01359D4214
:105DA00000D1D2E06B4A73080A4001210E401E4325
:105DB0005108D30707221E43324095E71E001643C1
:105DC00000D045E740E7624B9D423AD080236746CA
:105DD0001B041F43BC46382E00DDEBE01F2E00DC09
:105DE0003AE133006746203BDF403B00202E05D0E0
:105DF0004027BF1B6646BE40324390464646721E51
:105E000096413343DAE0002B00D114E2634613439A
:105E100000D168E180234E07C008C9081B03064370
:105E2000194208D06046C008184204D163460100F8
:105E3000D2085E071643F3009946C900720F444D1D
:105E400011434B46DE08424B4F073743CA089D4279
:105E500000D16EE012036D05120B6D0D00211203CF
:105E6000130B0A0D12051A433B4B2D0513402B4310
:105E70005B00E4075B082343380019003CBC9046F4
:105E80009946A246AB46F8BD6346134311D0731E34
:105E9000002B00D007E186188642804161444042D1
:105EA000091801250B0237D502257BE73E00614624
:105EB00091463500C5E75C46002D00D0E1E00B00BF
:105EC0000343F3D0731C00D1ACE1214B9F4200D1BE
:105ED0003AE1F343382B00DD6FE11F2B00DD8CE14D
:105EE00020250E00ED1AAE40B0460600AA46DE4060
:105EF000454635432E005546D940A8406346451EC9
:105F0000A8415B1A9C463043161AB242924163463E
:105F10005242991A3D00B4E607223240002A00D0CE
:105F2000E4E60B4BF6084F073743CA089D4200D002
:105F300090E73B00134300D1A6E180231B031A43E3
:105F40001203120B024D89E715000022002785E796
:105F5000FF070000FFFF7FFFFFFF0F80002E00D034
:105F6000C7E06B1C5E05760D012E00DCF0E0C84D2D
:105F7000AB4200D1B9E085180A00854289416244EC
:105F8000494251180722CE076D082E434908324076
:105F90001D00A9E6BF49ED1A114007223240A3E6D1
:105FA000320028388240002686E6300000F0F8F9FA
:105FB000203073E6634613435A1E9341C61AB0421B
:105FC00080414042091A5CE60E00674606431743CB
:105FD000002D5ED1002E00D0F3E0002F00D11EE195
:105FE0005C46614691462CE7A94FBE427BD01E001D
:105FF000F1E610001F3DE840202B03D04021CB1AD2
:106000009A401643731E9E410722064332400021E8
:10601000002583E7161A6346B2428041591A40426E
:106020000B1A98465C4632E61F2E00DDABE02027B7
:10603000BB1B9A4663465746BB40994613004F46E2
:10604000F3401F433B005746BA40571EBA41134323
:106050006246F240891898E62027BB1B9A466346A1
:106060005746BB40994613004F46F3401F433B0041
:106070005746BA40571EBA4113436246F240891A46
:106080009CE7834B9F425FD080252D0473422943B8
:1060900020E7002E0CD1002F00D1D0E05C466146F5
:1060A00091467B4DCDE67A4FBE421CD01E0065E680
:1060B000002F18D0C0084E0706438020C9080003EF
:1060C000014208D06346DC08044204D12100DA46CC
:1060D000D2085E071643F300994601245346C900CF
:1060E000720F11431C406A4DABE61D0000220027D1
:1060F000B4E6002D59D10B00034300D1D6E6731C42
:1061000000D1B2E0624B9F421ED0F343382B6FDCCC
:106110001F2B00DD97E020250E00ED1AAE40B046A3
:106120000600AA46DE40454635432E005546A840A7
:10613000D940451EA8418C440643B6189642924168
:10614000514261443D0025E63D006146914678E6B6
:106150000B000343002D00D055E6002BF5D063461D
:10616000134300D16DE68618864280416144404267
:10617000091800220B0200D4D0E6464B0135194025
:10618000B2E5B1465DE633006746203BDF403B00A9
:10619000202E05D04027BF1B6646BE4032439046A6
:1061A0004646721E96413343EFE5394B9F42CBD0B2
:1061B00080252D0473422943A8E70843411E8841E6
:1061C000A2E6002F00D13CE66346861ACF1AB04201
:1061D0009B415B42FB1A98461B024ED5161A63463A
:1061E000B2429241591A5242891A5C4600227BE51A
:1061F00001430E00711E8E419FE71D000E00203DE1
:10620000EE40B046202B04D04025EB1A99400843BD
:10621000814648464346411E8841184374E60022A1
:10622000002417E6161A6346B2429241591A5242A6
:10623000891A3D0025E561469146154D01E680220B
:106240000024120379E61D000E00203DEE40B0460A
:10625000202B04D04025EB1A9940084381464E4636
:106260004346711E8E411E4367E7861896429B4146
:1062700061445B42C9183D008CE547463743CED0A8
:1062800007224146324049E600273A00E6E5C0468B
:10629000FF070000FFFF7FFF70B50C4E0D031C03CE
:1062A00049005B002D0B490D240B5B0DB14208D05A
:1062B000064900208B4203D114432000441EA04114
:1062C00070BD05430120002DFAD1F1E7FF07000062
:1062D00030B5144D0A034B00120B5B0DC90F00249F
:1062E000AB4211DD104CA34210DC80246403224336
:1062F0000E4CE41A1F2C0CDD0D48C31ADA401300B3
:106300005C42002900D11C00200030BD094BCC1894
:10631000FAE7094DE040AC4663449A40130003435A
:10632000EEE7C046FE0300001D0400003304000039
:1063300013040000FFFFFF7FEDFBFFFF10B5041EFD
:1063400025D000F02DF8144B1B1A5B055B0D0A28B5
:1063500012DD0B38844000222403240B002110009E
:1063600024030A0D240B120522430C4C1B0522406A
:1063700013435B00590810BD020021001532914003
:106380000A000B21081AC4402403240BE6E700236B
:1063900000240022E2E7C0461E040000FFFF0F8039
:1063A0001C2101231B04984201D3000C10391B0A45
:1063B000984201D3000A08391B09984201D3000909
:1063C000043902A2105C40187047C0460403020260
:1063D000010101010000000000000000084B10B5A1
:1063E0000400002B02D0002100E000BF054B18681C
:1063F000836A002B00D09847200003F0B9FEC04606
:1064000000000000E4A7000070B500260C4D0D4C04
:10641000641BA410A64209D1002603F0ABFE0A4D6E
:106420000A4C641BA410A64205D170BDB300EB5802
:1064300098470136EEE7B300EB5898470136F2E78C
:10644000A0020020A0020020A0020020B002002034
:1064500010B5034B0100186800F06AF810BDC04683
:10646000D000002010B5034B0100186800F016F8AA
:1064700010BDC046D0000020002310B59A4200D1C4
:1064800010BDCC5CC4540133F8E7030012189342EA
:1064900000D1704719700133F9E7000070B50500AD
:1064A000002910D00C1F2368002B00DAE418280004
:1064B00002F0DBFF1D4A1368002B05D163601460F6
:1064C000280002F0D3FF70BDA34209D921686018EB
:1064D0008342F3D118685B6841182160EEE713002E
:1064E0005A68002A01D0A242F9D919685818A04266
:1064F0000BD120680918581819608242E0D1106841
:106500005268411819605A60DAE7A04202D90C2398
:106510002B60D5E721686018824203D11068526869
:106520004118216062605C60CAE7C0469C0F002091
:10653000032370B5CD1C9D43083506000C2D1ED2DB
:106540000C25A9421DD8300002F08FFF254A14689F
:106550002100002919D1244C2368002B03D13000DD
:1065600000F0A0FE20602900300000F09BFE431CDC
:106570002BD10C233000336002F078FF03E0002DB4
:10658000DFDA0C233360002070BD0B685B1B19D46D
:106590000B2B03D90B60CC18256003E04B688C42B1
:1065A0000DD11360300002F061FF200007220B3094
:1065B000231D9043C31AE7D05A42E250E4E76360D8
:1065C0000C00EFE70C004968C3E70323C41C9C439D
:1065D000A042E1D0211A300000F064FE431CDBD160
:1065E000C7E7C0469C0F0020A00F0020F0B58BB07D
:1065F00014001D1E129953DA802424061B191D0055
:1066000014002D230B702023149E03229E43462E3C
:1066100007D03300453B59424B411099013ACB1802
:10662000109309AB049308AB0393139B009202935E
:10663000109B220001932B0001F0D8FD0700472E8C
:1066400002D1119BDB0724D5109BFB180793462E24
:1066500014D13B78302B0CD10022002320002900DC
:10666000FEF7EEF8002804D10123109A9B1A139A22
:106670001360139B079A1B68D3180793002200230B
:1066800020002900FEF7DCF8302200280DD0079BFF
:1066900009933800099B159ADB1B13600BB0F0BD02
:1066A0000023AFE7591C09911A70099B07998B4287
:1066B000F8D3EEE7F0B5831C85B0019306000C001B
:1066C00002702B23002901DA2D234C427370092C10
:1066D00022DD02ABDD1D20000A21FEF79BF86F1EB4
:1066E0003031397020000A21FDF7AEFF040009287F
:1066F0000BDC023D3034019B2C7002AA07321800DB
:10670000AA4204D8801B05B0F0BD3D00E3E72A781B
:1067100001351A700133F0E73023E418B370301DEF
:10672000F470EFE7F0B595B00C000A920B931A9D48
:10673000099002F071FE036818000C9300F0E8FD68
:106740000023129323680E900D930D99277E2B68DA
:106750000722C90545D59B1893431A0008322A60C1
:106760001A685B68A264E3640122E56CA66C6B00A6
:106770005B080F935242AC4B30000F99FFF78CFD32
:10678000002830D10122A84B524230000F99FEF769
:1067900067F8002827D10022002330002900FEF7E7
:1067A00055F8002803D023002D2243331A709F4D43
:1067B000472F00D89E4D032300260D9A23610133F5
:1067C0009A4322600B9B13AA009321000A9B09980D
:1067D00000F0F4F9431C00D093E00120404215B0D2
:1067E000F0BD0733B8E732002B0030002900FFF777
:1067F00053FD002804D08F4D472FDCD88E4DDAE7AB
:1068000080230D996268DB000B43511C43D1073292
:10681000626012AA0021059211AA0392232223602A
:106820000691019308A963685218029200933200FE
:106830002B0004970998FFF7D9FE20233A000500A2
:106840009A43472A07D1119BDA1C02DB6268934204
:1068500045DD023FFFB21199652F25D8200001398F
:106860003A0050301191FFF725FF129A06001318D5
:106870002361012A02DC2268D20701D5013323619A
:10688000232308AA9B181B78002B9BD023002D22C2
:1068900043331A7096E7672F00D176E1472FB8D1BE
:1068A000002AB6D10122B3E7662F19D16368002907
:1068B0000CDD2161002B02D12268D20702D5013301
:1068C0005B182361119B0026A365D9E7002B03D138
:1068D00001222168114200D09A1C2261F2E7672749
:1068E000119B129A934205DB22682361D207E9D5F6
:1068F0000133E6E70121002B01DC4918C91A5218BF
:10690000EBE72268530508D423692A000A990998FD
:106910000B9DA847431C29D15FE7652F00D8E0E015
:10692000A06CE16C00220023FDF78AFF002834D020
:106930000123424A0A9909980B9DA847431C00D19C
:106940004BE7119B129A934202DB2368DB070DD5BC
:106950000B9D0E9B0C9A0A990998A8470025431C89
:1069600000D13AE7129B013BAB420ADC23689B074C
:1069700000D508E1139BE068984200DB2FE7180080
:106980002DE7220001231A320A9909980B9EB0477D
:10699000431C00D121E70135E4E7119B002B2DDCDE
:1069A0000123264A0A9909980B9EB047431C00D13F
:1069B00013E7119B002B05D1129B002B02D12368FA
:1069C000DB07D3D50B9E0E9B0C9A0A990998B0470A
:1069D0000026431C00D100E7119B5B42B34201DC5F
:1069E000129B92E7220001231A320A9909980B9F01
:1069F000B847431C00D1F0E60136EDE7A36D129FC6
:106A00009F4200DD1F00002F08DD3B002A000A998D
:106A100009980B9EB047431C00D1DEE600230D937E
:106A2000FB43DB170F9318E0FFFFEF7FECA700009D
:106A3000E8A70000F4A70000F0A7000031A20000C2
:106A4000220001231A320A9909980B9EB047431C71
:106A500000D1C2E60D9B01330D930F9BA66D0D9ADD
:106A60003B40F31A9342EBDC119B129AAD1993420F
:106A700010DB2368DB070DD4129F119BBE1BFF1A8E
:106A8000B74200DD3700002F0DDCFE43F317002571
:106A90000C931CE00E9B0C9A0A9909980B9FB8471F
:106AA000431CE9D199E63B002A000A9909980B9DFD
:106AB000A847431CE9D190E6220001231A320A9923
:106AC00009980B9EB047431C00D186E60135119A08
:106AD000129B0C999B1A3A000A409B1AAB42EBDCC2
:106AE00044E7129B012B02DC01231A4232D001231E
:106AF0002A000A9909980B9FB847431C00D16CE6FD
:106B00000E9B0C9A0A9909980B9F0135B847431CB4
:106B100000D162E6A06CE16C129B00225F1E002394
:106B2000FDF78EFE3B00002814D000250AE022006D
:106B300001231A320A9909980B9FB847431C00D1C8
:106B40004BE60135129B013BAB42F0DC22003300E7
:106B50005032DBE62A000A9909980B9DA847431C8E
:106B6000F4D13AE62200012319320A9909980B9EC2
:106B7000B047431C00D130E60135E368139A9B1AF5
:106B8000AB42EFDCF6E60025F7E7002A00D189E604
:106B90000021069112A9059111A90391232108A8AA
:106BA00009182360019300922B0004970291320090
:106BB0000998FFF71BFD050045E6C046F7B515002F
:106BC00001938A680B6900900C00934200DA13006D
:106BD00022002B6043321278002A01D001332B604F
:106BE00023689B0602D52B6802332B600627236897
:106BF0001F4027D0230043331B785A1E934122683D
:106C0000920630D42200019943320098089EB04782
:106C1000431C25D0062320682A68E168034000252C
:106C2000042B03D18D1AEB43DB171D40A3682269A7
:106C3000934201DD9B1AED180027BD4220D10020B0
:106C400010E00137E3682A689B1ABB42D2DD2200BC
:106C50000123193201990098089EB047431CF0D1D6
:106C600001204042FEBD3020E11843310870210070
:106C70005A1C45310978A218433202331170C1E71A
:106C8000220001231A3201990098089EB047431C44
:106C9000E6D00137D1E70000F0B589B004920A00D0
:106CA00043320593039002920A7E0C000E9B6E2ADB
:106CB00000D186E01FD8632A33D008D8002A00D13B
:106CC0008CE0582A4DD0250042352A7030E0642AE5
:106CD00001D0692AF7D1196825680A1D280629D527
:106CE00008681A60002803DA2D23029A40421370C4
:106CF0006B4E0A274FE0732A74D008D86F2A1FD032
:106D0000702AE0D1202209680A43226003E0752A34
:106D100016D0782AD7D12200782145321170614EE1
:106D200022E025001A684235111D196013682B7086
:106D3000012365E008681A606906D3D500B2D1E77F
:106D400019682568081D186008682E0605D5544E78
:106D500008276F2A1BD00A2719E06D06F7D580B2E5
:106D6000F5E745314E4E0A7018682268011D00682B
:106D70001960150621D5D30702D520231A432260B6
:106D80001027002803D1202322689A432260230081
:106D9000002243331A706368A360002B58DB04227F
:106DA000216891432160002854D1029D002B5AD0C4
:106DB0002500337842352B7055E05506DBD580B27F
:106DC000D9E71A680D68101D4969186013682E0606
:106DD00001D5196002E06D06FBD519800023029DE4
:106DE00023614FE01A68111D19601568002162685F
:106DF000280002F02FFB002801D0401B6060636870
:106E000023610023029A13703CE023692A0004994D
:106E10000398059DA847431C3ED023689B0715D4C3
:106E2000079BE068984239DA180037E02200012316
:106E3000193204990398059EB047431C2CD00135A4
:106E4000E368079A9B1AAB42F0DCE9E70025F7E715
:106E50000028ADD0029D3900FDF7F2FB735C013DC7
:106E60002B700028F7D1082F09D12368DB0706D53E
:106E700063682269934202DC3023013D2B70029B40
:106E80005B1B2361059B07AA00932100049B0398C9
:106E9000FFF794FE431CB8D10120404209B0F0BD79
:106EA000F8A7000009A80000F0B58BB0029000928E
:106EB0000020AE2205938B680E00591E52000490EC
:106EC000914205D95E3BFF3B04935E23FF33B360E1
:106ED000F0233268DB0013433360330000271C3398
:106EE0001D003C0003930897079701970697B26827
:106EF000002A13D0009B1B6809931B78492B00D1F3
:106F00007CE054D8392B47D8312B00D394E02D2B7B
:106F100000D19CE017D82B2B00D198E0019B002BCF
:106F200003D032689B4B13403360013C012C00D9E5
:106F3000EEE0BE246400039B9D4200D9DEE0012701
:106F400038000BB0F0BD2E2B00D1A2E0302BE5D1E4
:106F50003168C80570D580239943019B31600133A6
:106F60000193049B002B03D0013B01320493B260D8
:106F7000B368009A013BB360336901333361009B0E
:106F80005B680993013B5360002B00DCACE01368A5
:106F9000099301331360AAE7452B00D183E0462B08
:106FA0006DD0412BBAD1012CB8D102244CE0652B15
:106FB00079D01BD8542B67D013D84E2BAED1002CD0
:106FC0004CD1019A002A4BD1E021E0203268C9005F
:106FD0001140C000814243D16F4901340A40326000
:106FE00032E0592B23D0612BDDD097E76E2BE6D012
:106FF00018D8662B43D0692B00D08FE7002F37D1EC
:10700000019A002A00D08CE7E021E0203268C90014
:107010001140C000814200D087E75F4901370A4034
:10702000326011E0742B2FD0792B00D076E7072F38
:1070300000D073E7082707E0E219002A00D06DE7C7
:10704000564A31680A4032602B70013590E7802142
:1070500032680A4200D161E78A43F4E7022C41D04A
:10706000012F02D0042F00D058E70137FFB2EBE721
:107070000221FA1E8A43D2B2002AF6D04EE7022F2E
:1070800000D04BE70327DFE7062F00D046E70727AE
:10709000DAE73268910500D440E741490A4032609E
:1070A000019A0692D0E7A02180203268C9001140E1
:1070B000C000814206D0024200D12FE70199002989
:1070C00000D132E7910504D4019906980895091A70
:1070D000079131490A40C02149000A433260002229
:1070E0000192B1E70324AFE7C0235B00F358009996
:1070F00002989847002800D1F9E60FE7013D33597F
:107100002978009A029898473369013B336112E766
:107110007B1E062B26D8022F39D8BE246400039B81
:107120009D4200D80BE7013D33592978009A029817
:1071300098473369013B3361F1E7049B009A013BB7
:1071400004931978BE235B00F3580298099398477B
:107150003369013B3361013CE4B2022CEDD1033FC2
:10716000FFB2ED1B3368DA0537D55B051AD5BE24AF
:107170006400039B9D4200D8E1E6013D3359297824
:10718000009A029898473369013B3361F1E73C006C
:107190000495E0E7FFFEFFFF7FF8FFFF7FFEFFFFA4
:1071A0007FFDFFFF33696C1E2178013B3361652948
:1071B0000CD045290AD0BE235B00F358009A0298F0
:1071C00098473369AC1E013B21783361BE235B00D5
:1071D000F358009A029898472500102733681F40FB
:1071E0005BD1C0232F703268DB0013408022D200B5
:1071F00093421BD1069A019B9B1A5A42002B22D123
:1072000000220399029800F0CBFE059B0400306831
:107210000D001B68820723D51A1D05990A601B689B
:107220001C605D60F3680133F36089E6079B002B07
:10723000E6D0089B3A00591C02980A2300F040FF50
:10724000079B089DC21A33007033FF339D4202D35F
:1072500035006F35FF351249280000F039F8CFE7C7
:10726000042108401A1D01900028D6D1059920005C
:107270000A601B682200009329002B00FFF70CF81E
:10728000002805D0019800F01FF8009B1860C9E79E
:107290002000290002F0E8FEF7E7002750E6C0468C
:1072A0001AA80000002370B5064C050008002360F2
:1072B000FDF78AF8431C03D12368002B00D02B6014
:1072C00070BDC046A40F0020004870470000C07F7A
:1072D0000EB400B50B499CB01DAB0290069007910F
:1072E00004910948094904CB0591006802A901935A
:1072F00002F024FD0023029A13701CB008BC03B0F6
:107300001847C046FFFFFF7FD00000200802FFFFA4
:107310000023C25C0133002AFBD1581E70470000D5
:1073200070B516000D0002F073FB002E0DD06B231C
:107330006A00520D9B1A002B07DD0024034A1B052F
:107340009D182B002200FEF7EDF970BD0000F03F04
:10735000F0B5A7B0079300230490079822930691F5
:107360001D9202F057F805000068FFF7D1FF0026D4
:107370000027069B05902193219B1A780D2A39D866
:10738000092A3DD2002A44D0002313930022219CD5
:107390000C922378302B00D07EE06378582B02D0FB
:1073A000782B00D06EE0079B964A0293139B21A98D
:1073B000019322AB0093049823AB01F040FD072515
:1073C0000590054005D0062D2FD1002301342194CE
:1073D00013931D9B002B02D01D9B219A1A60139BB7
:1073E000002B1DD0802332001B06FB181000190053
:1073F00027B0F0BD2B2A16D02D2A03D0202AC3D1C6
:107400000133B8E7012213925A1C21925B78002BBA
:10741000BCD1069B2193002313931D9B002BDBD132
:1074200032003B00E2E70022EDE7229A002A07D073
:10743000352124A802F0D9FB2299049802F04FF8D4
:10744000681E042806D8FDF76BF80C0317190C000A
:10745000249E259F059B1B07BBD580231B061F432E
:10746000B7E7259B684A69491A40239B249E5B180D
:107470001B051A431700EDE7654FEBE70126654F43
:107480007642E7E7219B5A1C21925B78302BF9D09A
:10749000002B9ED001230C93219B0A2212930023E0
:1074A0000B9308930A93219804782300303BD9B2B8
:1074B000092934D9059A296802F03EFD002840D0F8
:1074C0000020230084460A9A079005922022190082
:1074D00091430A000021452A00D0BFE0059B0C9A89
:1074E000034313438B4294D0219B06930133219392
:1074F000069B5B782B2B00D182E00C002D2B05D155
:107500000124069B02332193069B9B781A00303A94
:10751000092A00D884E0069A002121929EE00A9967
:10752000082909DC08995143CB1808930A9B0130BC
:1075300001330A932190B6E70B995143CB180B9373
:10754000F4E7219A059B94460A9A634421931B7899
:10755000002A36D0844605921A00303A092A12D9F8
:1075600001220792B2E7219B01305A1C21925B78DD
:10757000302BF8D01A00313A082A3CD88446002033
:10758000219A05901292303B421C002B13D00A2105
:107590009444059A8518AA4215D10599059A013196
:1075A000091812180591082A1BDC0A2208994A4377
:1075B0009B1800220893219B1000591C21915B7895
:1075C000CAE70A98D4E7541C082A04DC089A4A43FC
:1075D00008922200DFE7102CFBDC0B9A4A430B9247
:1075E000F7E7059900221029E5DC0A210B984143B1
:1075F0005B180B93DFE70022944605920132B0E757
:107600000C007EE720A80000FFFFEFFF330400001E
:107610000000F07FFFFFFF7F219B5A1C21925B78C7
:10762000302BF9D01A00313A0021082A16D8303B05
:10763000219D0E93219B591C21915B781A00303AB1
:10764000092A32D94A1BAD4D2900082A03DC0E99BC
:10765000A94200DD2900002C00D04942059A002AE9
:1076600049D10C9A104300D0B3E6079A002A00D003
:10767000CFE64E2B25D01FDC492B00D0C9E6A04910
:1076800021A801F019FE002800D1C2E6219B9D49E6
:10769000013B21A8219301F00FFE002802D1219B7C
:1076A00001332193984F002693E60A220E994A430C
:1076B000D218303A0E92BDE7692BE0D06E2B00D085
:1076C000A7E6924921A801F0F7FD002800D1A0E625
:1076D000219B1B78282B0CD124AA8D4921A801F0CD
:1076E000FFFD052805D1259B874A249E1A431700D4
:1076F0006FE6884FD7E76346CB1A07930A9B002BA8
:1077000001D1059B0A93059C102C00DD10240898DC
:10771000FEF714FE059B06000F00092B15DC079BE6
:10772000002B00D155E6079B002B00DC7DE0162BDB
:1077300062DCDC00784B320019193B0008684968AC
:10774000FDF7F0FF06000F0043E62200724B093AF6
:10775000D2009B181A685B68FDF7E4FF06000B98DF
:107760000F00FEF7EBFD0B00020039003000FDF7C3
:10777000B3F8059B06000F000F2BD0DD059B1C1BEB
:10778000079BE418002C00DC94E00F2323400AD070
:107790006149DB00C9183200086849683B00FDF701
:1077A000C1FF06000F000F239C436ED02633FF332A
:1077B0009C4248DD002405940B940A942223002661
:1077C000049A514F13600B9BB34200D101E62299FA
:1077D000049801F084FE0A99049801F080FE05994E
:1077E000049801F07CFE0B99049801F078FE2100CA
:1077F000049801F074FEECE52523059A9B1A079A7C
:107800009342BBDB0F23059A434C9D1AE900611894
:107810003200086849683B00FDF784FF079B5E1B48
:10782000F600A619326873688AE7079B1633A5DB52
:10783000079B3000DA00384B39009B1A1A685B68E6
:10784000FDF766FB7EE70023300039001D002411A0
:10785000012C1DDC002B01D006000F002F4BED008A
:10786000FF182F4B32005D19286869683B00FDF74F
:1078700059FF254B2B4A06000B4093429AD82A4ABF
:10788000934213D90126294F7642002306937BE0C9
:107890000122144207D0224AEB009B181A685B6849
:1078A000FDF740FF012301356410D1E7D4239B0489
:1078B000CF18EAE7002CE8D00F23644223400AD017
:1078C000154ADB00D31830001A685B683900FDF7F1
:1078D0001FFB06000F002411D7D01F2C28DD002429
:1078E00005940B940A942223049A002613600B9BA0
:1078F0000027002B00D06AE76BE5C0461F4E000052
:10790000EDA7000073A800000000F07FF5A70000BD
:1079100034A800000000F8FFB0A800000000B0FC90
:1079200088A800000000A07C0000907CFFFFEF7F93
:1079300010232340069301D06A23069300233000CE
:1079400039001D00002C00DD0EE1002B01D00600E7
:107950000F00069B002B0FD06B237900490D3A00D6
:107960005B1A002B08DD1F2B00DC12E10026342BF4
:1079700000DC07E1DC27BF040022002330003900CF
:10798000FCF75EFF0028AAD1089B0A9A009312997F
:10799000059B049801F0FAFD0B90002800D109E73F
:1079A000079B079ADB17524213401593079B00244D
:1079B000DB43079ADB171A401C9205940B9B049833
:1079C000596801F054FD0A90002800D1F6E60B9B9F
:1079D0000B991B690C319A1C92000C300893FEF72E
:1079E0004BFD24AB019323AB009332003B00049882
:1079F0000E960F9702F07EF82290002800D1DDE667
:107A00000121049801F049FE0590002800D1D5E637
:107A1000239B002B00DAC1E0159A9D181C9A94460E
:107A20000699249A5B1A36219B188A1AB249013B9F
:107A300001208B4200DBBDE0C91A521A1F2900DD6C
:107A4000B1E08840002314901093AB180893130002
:107A5000069A6344D318089A0C932B00954200DDD4
:107A600013000C9A934200DD1300002B06DD089AE8
:107A7000ED1AD21A08920C9AD21A0C92159B002B6E
:107A800017D01A000599049801F0A0FE059000286F
:107A900000D193E60100229A049801F007FE1290AB
:107AA000002800D18AE62299049801F018FD129B63
:107AB0002293089B002B00DD7FE0079B002B08DD55
:107AC0001C9A0A99049801F081FE0A90002800D1BE
:107AD00074E60C9B002B08DD1A000A99049801F04B
